S012000043726F6E6F6D6574726F2E73726563EA
S113000071C000008EC000008CC000008AC00000D7
S113001088C0000086C0000084C0000082C00000C8
S113002080C000007EC000007CC000007AC00000D8
S113003078C0000076C0000074C0000072C00000E8
S113004070C000006EC000006CC000006AC00000F8
S113005068C0000065C3000064C0000062C0000006
S113006060C000005EC000005CC000005AC0000018
S113007058C0000056C0000054C0000052C0000028
S113008050C000004EC000004CC000004AC0000038
S113009048C0000046C0000044C0000042C0000048
S11300A040C000003EC000003CC000003AC0000058
S11300B038C0000036C0000034C0000032C0000068
S11300C030C000002EC000002CC000002AC0000078
S11300D028C0000026C0000024C0000022C0000088
S11300E020C0000011241FBECFEFD1E2DEBFCDBF80
S11300F000E00CBF12E0A0E0B2E0EAE7F9E000E0C3
S11301000BBF02C007900D92AE3CB107D9F722E0B5
S1130110AEECB2E001C01D92AC3FB207E1F7C8D229
S11301202AC46ECFCF93DF93FC01CB0131E0C42FFF
S1130130D0E001C0342F2FEF230FBE0116D38A3035
S1130140910530F0DF01A20FB11D895C8C9305C0CD
S1130150DF01A20FB11D805D8C9341E0430F862F18
S1130160972F009739F7DF01A30FB11D1C922223AB
S113017079F080E0EF01C80FD11D98818F5FDF0116
S1130180A20FB11D3C91388321509C93821790F3A8
S1130190DF91CF910895ECEDF2E08CEF92E01192B3
S11301A0119211921192E817F907C9F70895AF92C5
S11301B0BF92CF92DF92EF92FF920F931F93CF9350
S11301C0DF938091D6029091D702A091D802B0918A
S11301D0D902A12C0F2EF8E6BF2EF02D0F2EF4EC31
S11301E0CF2EF02D0F2EF1E6DF2EF02D6894EE24A5
S11301F0E3F8F12C00E010E0282F392F4A2F5B2F71
S113020060E070E080E090E0E8D2822F932F90933A
S1130210CF028093CE026091D6027091D702809172
S1130220D8029091D902C091CE02D091CF0220E0A1
S113023037E843E953E0ADD260E078E9C69FC001F6
S1130240C79F900DD69F900D1124280F391F30930E
S1130250D1022093D0026091D6027091D70280918E
S1130260D8029091D902C091D002D091D10220E459
S113027032E44FE050E08DD260E079E7C69FC001E0
S1130280C79F900DD69F900D1124280F391F3093CE
S1130290D3022093D2026091D6027091D70280914A
S11302A0D8029091D902C091D202D091D30228EE03
S11302B033E040E050E06DD260EC7DEBC69FC001BE
S11302C0C79F900DD69F900D1124280F391F30938E
S11302D0D5022093D402DF91CF911F910F91FF900B
S11302E0EF90DF90CF90BF90AF9008957F928F9260
S11302F09F92AF92BF92CF92DF92EF92FF920F93B1
S11303001F93CF93DF93782E8091D6029091D702DA
S1130310A091D802B091D902A12C0F2EF8E6BF2EDD
S1130320F02D0F2EF4ECCF2EF02D0F2EF1E6DF2E54
S1130330F02D6894EE24E3F8F12C00E010E0282F6F
S1130340392F4A2F5B2F60E070E080E090E045D2C7
S1130350822F932F9093CF028093CE028090CE026F
S11303609090CF02E72DF0E0EE0FFF1FEE0FFF1F7E
S1130370E452FD4F608171818281938120E037E8EE
S113038043E953E006D260E078E9869EC001879E87
S1130390900D969E900D1124280F391F3093D10291
S11303A02093D0026091D6027091D7028091D80236
S11303B09091D9028090D0029090D10220E432E44E
S11303C04FE050E0E6D160E079E7869EC001879E69
S11303D0900D969E900D1124280F391F3093D3024F
S11303E02093D2026091D6027091D7028091D802F4
S11303F09091D9028090D2029090D30228EE33E0FB
S113040040E050E0C6D160EC7DEB869EC001879E43
S1130410900D969E900D1124280F391F3093D5020C
S11304202093D402DF91CF911F910F91FF90EF9011
S1130430DF90CF90BF90AF909F908F907F90089562
S1130440E091DA02E830C8F481E08E0F8093DA029A
S11304508091D6029091D702A091D802B091D9028E
S1130460F0E0EE0FFF1FEE0FFF1FE452FD4F8083FD
S11304709183A283B38381E0089580E0089582E0AC
S113048085BD81E08093DB02089515BC1092DB02E8
S113049008951092DB027FDEF8DF1092D6021092EC
S11304A0D7021092D8021092D902089582E084BD36
S11304B016BC97E097BD80936E007894089587E604
S11304C090E09093C5008093C40082E08093C000C4
S11304D088E18093C10086E08093C2000895E0EC37
S11304E0F0E0908195FFFDCF8093C6000895CF93EF
S11304F0DF93EC018881882329F02196F0DF89912C
S11305008111FCCFDF91CF910895CF93DF93CDB7C5
S1130510DEB760970FB6F894DEBF0FBECDBF47DEDF
S11305206091CE027091CF024AE0CE010196FADDCD
S11305306091D0027091D1024AE0CE010596F2DDBD
S11305406091D2027091D3024AE0CE010996EADDAD
S11305506091D4027091D5024AE0CE010D96E2DD9D
S113056080E092E0C4DF8CE192E0C1DFCE0101962D
S1130570BEDF8AE192E0BBDFCE010596B8DF8AE1F7
S113058092E0B5DFCE010996B2DF8AE192E0AFDFF7
S1130590CE010D96ACDF60960FB6F894DEBF0FBEA9
S11305A0CDBFDF91CF9108951F93CF93DF93CDB744
S11305B0DEB760970FB6F894DEBF0FBECDBF8FE1F4
S11305C092E095DF80E011E0180F90DE6091CE029A
S11305D07091CF024AE0CE010196A4DD6091D00271
S11305E07091D1024AE0CE0105969CDD6091D20261
S11305F07091D3024AE0CE01099694DD6091D40251
S11306007091D5024AE0CE010D968CDD8CE192E02A
S11306106EDFCE0101966BDF8AE192E068DFCE01E6
S1130620059665DF8AE192E062DFCE0109965FDF1D
S11306308AE192E05CDFCE010D9659DF8CE192E015
S113064056DF812F183009F0BECF60960FB6F894AC
S1130650DEBF0FBECDBFDF91CF911F910895E0ECB7
S1130660F0E080818823ECF78091C6000895F7DFDD
S11306708F7D833489F0803589F08C3429F490910E
S1130680DB0291110DC002C0823561F0863561F044
S1130690833561F087E0089581E0089582E008954C
S11306A083E0089584E0089585E0089586E0089540
S11306B006DFFCDE86E392E01ADF6DDD8DE492E076
S11306C016DF8FE592E013DF8CE692E010DF88E717
S11306D092E00DDF85E892E00ADF85E992E007DF2A
S11306E0C6DF833081F028F4813049F0823049F04C
S11306F0E4CF853089F070F0863081F0DECFBFDE44
S1130700DCCFC3DEDACF9CDE8111D7CF8BEA92E057
S1130710EEDED3CFBEDED1CF47DFCFCFF6DECDCFF7
S11307201F920F920FB60F9211248F939F93AF9342
S1130730BF938091D6029091D702A091D802B09134
S1130740D9020496A11DB11D8093D6029093D702BD
S1130750A093D802B093D902BF91AF919F918F918A
S11307600F900FBE0F901F901895AA1BBB1B51E151
S113077007C0AA1FBB1FA617B70710F0A61BB70B0D
S1130780881F991F5A95A9F780959095BC01CD01B2
S11307900895A1E21A2EAA1BBB1BFD010DC0AA1FBE
S11307A0BB1FEE1FFF1FA217B307E407F50720F0D6
S11307B0A21BB30BE40BF50B661F771F881F991F51
S11307C01A9469F760957095809590959B01AC019A
S11307D0BD01CF010895689401C0E894F92FF12B6D
S11307E00AF027C0A0E0B0E0E7EFF3E093C0092EE1
S11307F005941AF479D0112392F4F0E80F26FFEF50
S1130800E094F09400951095B094C094D094A19481
S1130810BF0ACF0ADF0AEF0AFF0A0F0B1F0B13D020
S113082007FC62D0CDB7DEB7ECE090C0689401C09D
S1130830E8948F929F92CF93DF9305D0DF91CF916D
S11308409F908F90089588249924F401E401B0E4E2
S11308509F93AA279A158B049C04ED05FE05CF05EA
S1130860D007A10798F4AD2FDC2FCF2FFE2FE92D51
S1130870982C892E982F872F762F652F542F432F4E
S1130880322F2227B85031F7BF9127C01B2EBF91BA
S1130890BB27220F331F441F551F661F771F881F56
S11308A0991F881C991CEE1FFF1FCC1FDD1FAA1F58
S11308B0BB1F8A149B04EC05FD05CE05DF05A007CC
S11308C0B10748F08A189B08EC09FD09CE09DF0935
S11308D0A00BB10B21601A94E1F62EF49401AF0140
S11308E0BE01CD01000C089560957095809590959A
S11308F030954095509521953F4F4F4F5F4F6F4F27
S11309007F4F8F4F9F4F08952F923F924F925F9248
S11309106F927F928F929F92AF92BF92CF92DF920B
S1130920EF92FF920F931F93CF93DF93CDB7DEB770
S1130930CA1BDB0B0FB6F894DEBF0FBECDBF1994F4
S11309402A88398848885F846E847D848C849B845B
S1130950AA84B984C884DF80EE80FD800C811B8169
S1130960AA81B981CE0FD11D0FB6F894DEBF0FBE98
S10D0970CDBFED010895F894FFCF08
S113097A0A0D43726F6E6F6D6574726F20616C201D
S113098A6D6F6D656E746F2065733A000A0D000A07
S113099A0D4C6170732067756172646164617320C0
S11309AA736F6E3A20000A0D3D3D3D3D43726F6EF2
S11309BA6F6D6574726F3D3D3D3D3D3D000A0D0A04
S11309CA0D5B435D20436F6D656E7A61722E000A7A
S11309DA0D5B505D2050617261722E000A0D5B4CF2
S11309EA5D204C61702E20000A0D5B525D20526519
S11309FA7365742E000A0D5B565D20566572206C71
S1130A0A6170732E000A0D5B535D20566572206374
S1130A1A726F6E6F6D6574726F2E004572726F72AB
S1130A2A2C206E756D65726F206D6178696D6F200B
S1110A3A6465206C61707320657320382E0093
S9030000FC
