:1000000071C000008EC000008CC000008AC00000DB
:1000100088C0000086C0000084C0000082C00000CC
:1000200080C000007EC000007CC000007AC00000DC
:1000300078C0000076C0000074C0000072C00000EC
:1000400070C000006EC000006CC000006AC00000FC
:1000500068C0000079C2000064C0000062C00000F7
:1000600060C000005EC000005CC000005AC000001C
:1000700058C0000056C0000054C0000052C000002C
:1000800050C000004EC000004CC000004AC000003C
:1000900048C0000046C0000044C0000042C000004C
:1000A00040C000003EC000003CC000003AC000005C
:1000B00038C0000036C0000034C0000032C000006C
:1000C00030C000002EC000002CC000002AC000007C
:1000D00028C0000026C0000024C0000022C000008C
:1000E00020C0000011241FBECFEFD1E2DEBFCDBF84
:1000F00000E00CBF12E0A0E0B2E0E2EAF7E000E0CE
:100100000BBF02C007900D92A63EB107D9F723E0BE
:10011000A6EEB2E001C01D92A431B207E1F7DFD133
:100120003EC36ECFCF93DF93FC01CB0131E0C42FF0
:10013000D0E001C0342F2FEF230FBE012AD28A3026
:10014000910530F0DF01A20FB11D895C8C9305C0D1
:10015000DF01A20FB11D805D8C9341E0430F862F1C
:10016000972F009739F7DF01A30FB11D1C922223AF
:1001700079F080E0EF01C80FD11D98818F5FDF011A
:10018000A20FB11D3C91388321509C93821790F3AC
:10019000DF91CF910895E4EFF2E084E193E01192D2
:1001A000119211921192E817F907C9F708957F92F9
:1001B0008F929F92AF92BF92CF92DF92EF92FF9277
:1001C0000F931F93CF93DF93782E8091EE0290913F
:1001D000EF02A091F002B091F102A12C0F2EF8E6EF
:1001E000BF2EF02D0F2EF4ECCF2EF02D0F2EF1E6BA
:1001F000DF2EF02D6894EE24E3F8F12C00E010E0FF
:10020000282F392F4A2F5B2F60E070E080E090E0CC
:10021000F8D1822F932F9093E7028093E6022091EA
:10022000E6023091E70280E098E6289F4001299F8E
:10023000900C389F900C1124E72DF0E0EE0FFF1F7B
:10024000EE0FFF1FEC50FD4F608171818281938121
:1002500020E037E843E953E0B0D1821A930A909244
:10026000E9028092E8024091E8025091E90260912F
:10027000EE027091EF028091F0029091F10220E085
:1002800037E8429F4001439F900C529F900C1124ED
:1002900020E432E44FE050E090D1821A930A909229
:1002A000EB028092EA024091EA025091EB026091E7
:1002B000EE027091EF028091F0029091F10220E441
:1002C00032E4429F4001439F900C529F900C1124B6
:1002D00028EE33E040E050E070D1821A930A909209
:1002E000ED028092EC02DF91CF911F910F91FF9070
:1002F000EF90DF90CF90BF90AF909F908F907F90C6
:100300000895E091F202E830A0F48091EE0290911D
:10031000EF02A091F002B091F102F0E0EE0FFF1FAA
:10032000EE0FFF1FEC50FD4F80839183A283B383B8
:10033000089580E0089582E085BD81E08093F30216
:10034000089515BC1092F30208951092F30223DF72
:10035000F8DF1092EE021092EF021092F00210926B
:10036000F102089582E084BD16BC97E097BD8093AA
:100370006E007894089587E690E09093C50080938E
:10038000C40082E08093C00088E18093C10086E0D1
:100390008093C2000895E0ECF0E0908195FFFDCFDE
:1003A0008093C6000895CF93DF93EC018881882362
:1003B00029F02196F0DF89918111FCCFDF91CF9157
:1003C00008951F93CF93DF93CDB7DEB760970FB635
:1003D000F894DEBF0FBECDBF182F8CE192E0E3DFB3
:1003E000812F90E0C096DFDF812FE1DE6091E60291
:1003F0007091E7024AE0CE01019694DE6091E80236
:100400007091E9024AE0CE0105968CDE6091EA0225
:100410007091EB024AE0CE01099684DE6091EC0215
:100420007091ED024AE0CE010D967CDE83E292E00F
:10043000BADFCE010196B7DF8AE192E0B4DFCE01E8
:100440000596B1DF8AE192E0AEDFCE010996ABDF1F
:100450008AE192E0A8DFCE010D96A5DF60960FB687
:10046000F894DEBF0FBECDBFDF91CF911F910895ED
:10047000E0ECF0E080818823ECF78091C6000895DD
:10048000F7DF833499F0982F9F7D903589F09C3465
:1004900029F42091F30221110DC002C0923561F0C0
:1004A000963561F0833561F087E0089581E0089525
:1004B00082E0089583E0089584E0089585E008953A
:1004C00086E008958DE292E06EDFD2DF9FEC980F18
:1004D000983018F4805375CF089580E008954BDF6D
:1004E00041DF80E592E05FDF56DE87E692E05BDF8A
:1004F00087E792E058DF84E892E055DF80E992E0F8
:1005000052DF8DE992E04FDF8DEA92E04CDFB8DFF9
:10051000833079F028F4813041F0823041F0E4CF2B
:10052000843071F0853071F0DFCF05DFDDCF09DF7A
:10053000DBCFE7DE8111D8CF83EC92E034DFD4CF7C
:1005400004DFD2CFBFDFD0CF1F920F920FB60F9232
:1005500011248F939F93AF93BF938091EE0290915C
:10056000EF02A091F002B091F1020496A11DB11D1D
:100570008093EE029093EF02A093F002B093F10209
:10058000BF91AF919F918F910F900FBE0F901F90D1
:100590001895AA1BBB1B51E107C0AA1FBB1FA617BA
:1005A000B70710F0A61BB70B881F991F5A95A9F71C
:1005B00080959095BC01CD010895A1E21A2EAA1B49
:1005C000BB1BFD010DC0AA1FBB1FEE1FFF1FA21703
:1005D000B307E407F50720F0A21BB30BE40BF50B00
:1005E000661F771F881F991F1A9469F76095709589
:1005F000809590959B01AC01BD01CF010895689451
:1006000001C0E894F92FF12B0AF027C0A0E0B0E078
:10061000EBE0F3E093C0092E05941AF479D011238E
:1006200092F4F0E80F26FFEFE094F0940095109517
:10063000B094C094D094A194BF0ACF0ADF0AEF0A05
:10064000FF0A0F0B1F0B13D007FC62D0CDB7DEB72C
:10065000ECE090C0689401C0E8948F929F92CF9391
:10066000DF9305D0DF91CF919F908F9008958824DC
:100670009924F401E401B0E49F93AA279A158B040E
:100680009C04ED05FE05CF05D007A10798F4AD2F1A
:10069000DC2FCF2FFE2FE92D982C892E982F872F16
:1006A000762F652F542F432F322F2227B85031F742
:1006B000BF9127C01B2EBF91BB27220F331F441FA2
:1006C000551F661F771F881F991F881C991CEE1FD6
:1006D000FF1FCC1FDD1FAA1FBB1F8A149B04EC0544
:1006E000FD05CE05DF05A007B10748F08A189B0875
:1006F000EC09FD09CE09DF09A00BB10B21601A94AA
:10070000E1F62EF49401AF01BE01CD01000C089575
:100710006095709580959095309540955095219570
:100720003F4F4F4F5F4F6F4F7F4F8F4F9F4F0895FA
:100730002F923F924F925F926F927F928F929F92F1
:10074000AF92BF92CF92DF92EF92FF920F931F93DF
:10075000CF93DF93CDB7DEB7CA1BDB0B0FB6F89490
:10076000DEBF0FBECDBF19942A88398848885F84C0
:100770006E847D848C849B84AA84B984C884DF8041
:10078000EE80FD800C811B81AA81B981CE0FD11D25
:100790000FB6F894DEBF0FBECDBFED010895F894FB
:0207A000FFCF89
:1007A2000A0D43726F6E6F6D6574726F20616C20FB
:1007B2006D6F6D656E746F2065733A000A0D4C6142
:1007C2007020000A0D436F6E3A200A0D000A0D5385
:1007D200656C656363696F6E6520656C206C617022
:1007E20020612076657220283120616C2038290032
:1007F2000A0D3D3D3D3D43726F6E6F6D6574726FC4
:100802003D3D3D3D3D3D000A0D5B435D20436F6D27
:10081200656E7A61722E000A0D5B505D2050617226
:1008220061722E000A0D5B4C5D204C61702E20001F
:100832000A0D5B525D2052657365742E000A0D5BD2
:10084200565D20566572206C6170732E000A0D5B36
:10085200535D205665722063726F6E6F6D657472A0
:100862006F2E004572726F722C206E756D65726FFD
:10087200206D6178696D6F206465206C61707320F2
:06088200657320382E0012
:00000001FF
